{
  "contractName": "Election",
  "abi": [
    {
      "constant": true,
      "inputs": [
        {
          "name": "",
          "type": "uint256"
        }
      ],
      "name": "candidate",
      "outputs": [
        {
          "name": "id",
          "type": "uint256"
        },
        {
          "name": "name",
          "type": "string"
        },
        {
          "name": "voteCount",
          "type": "uint256"
        }
      ],
      "payable": false,
      "stateMutability": "view",
      "type": "function"
    },
    {
      "constant": true,
      "inputs": [],
      "name": "candidateCount",
      "outputs": [
        {
          "name": "",
          "type": "uint256"
        }
      ],
      "payable": false,
      "stateMutability": "view",
      "type": "function"
    },
    {
      "inputs": [],
      "payable": false,
      "stateMutability": "nonpayable",
      "type": "constructor"
    }
  ],
  "bytecode": "0x608060405234801561001057600080fd5b506100556040518060400160405280600b81526020017f43616e646964617465203100000000000000000000000000000000000000000081525061009e60201b60201c565b6100996040518060400160405280600b81526020017f43616e646964617465203200000000000000000000000000000000000000000081525061009e60201b60201c565b6101be565b6001600081548092919060010191905055506040518060600160405280600154815260200182815260200160008152506000806001548152602001908152602001600020600082015181600001556020820151816001019080519060200190610108929190610119565b506040820151816002015590505050565b828054600181600116156101000203166002900490600052602060002090601f016020900481019282601f1061015a57805160ff1916838001178555610188565b82800160010185558215610188579182015b8281111561018757825182559160200191906001019061016c565b5b5090506101959190610199565b5090565b6101bb91905b808211156101b757600081600090555060010161019f565b5090565b90565b610202806101cd6000396000f3fe608060405234801561001057600080fd5b50600436106100365760003560e01c80631de43c4b1461003b578063a9a981a3146100f0575b600080fd5b6100676004803603602081101561005157600080fd5b810190808035906020019092919050505061010e565b6040518084815260200180602001838152602001828103825284818151815260200191508051906020019080838360005b838110156100b3578082015181840152602081019050610098565b50505050905090810190601f1680156100e05780820380516001836020036101000a031916815260200191505b5094505050505060405180910390f35b6100f86101d0565b6040518082815260200191505060405180910390f35b6000602052806000526040600020600091509050806000015490806001018054600181600116156101000203166002900480601f0160208091040260200160405190810160405280929190818152602001828054600181600116156101000203166002900480156101c05780601f10610195576101008083540402835291602001916101c0565b820191906000526020600020905b8154815290600101906020018083116101a357829003601f168201915b5050505050908060020154905083565b6001548156fea165627a7a72305820bf56469d1fa1997f58b3e8bec09d096dcef2d170414fb02985279e5ef35eb0a50029",
  "source": "pragma solidity ^0.5.0;\ncontract Election {\n\n   \n    \n    //Fetch the candidate\n    //Store candidate count\n\n    //string public candidate;\n     //Model the candidate\n        struct Candidate{\n         uint id;\n         string name;\n         uint voteCount;   \n    }\n    //Store the candidate\n     mapping(uint=>Candidate) public candidate;\n\n    //Store candidate count\n     uint public candidateCount;\n\n     function addCandidate(string memory _name) private {\n         candidateCount++;\n         \n         candidate[candidateCount]= Candidate(candidateCount,_name,0);\n     }\n\n  \n\n    //Constructor\n    constructor() public{\n        addCandidate(\"Candidate 1\");\n        addCandidate(\"Candidate 2\");\n    }\n}",
  "sourcePath": "/Users/rutvikpatel/Desktop/github/BlockChainElectionResult/contracts/Election.sol",
  "compiler": {
    "name": "solc",
    "version": "0.5.8+commit.23d335f2.Emscripten.clang"
  },
  "schemaVersion": "3.0.14",
  "updatedAt": "2019-09-06T05:15:50.805Z",
  "devdoc": {
    "methods": {}
  },
  "userdoc": {
    "methods": {}
  }
}