{
  "contractName": "Election",
  "abi": [
    {
      "constant": true,
      "inputs": [
        {
          "name": "",
          "type": "uint256"
        }
      ],
      "name": "candidate",
      "outputs": [
        {
          "name": "id",
          "type": "uint256"
        },
        {
          "name": "name",
          "type": "string"
        },
        {
          "name": "voteCount",
          "type": "uint256"
        }
      ],
      "payable": false,
      "stateMutability": "view",
      "type": "function"
    },
    {
      "constant": true,
      "inputs": [
        {
          "name": "",
          "type": "address"
        }
      ],
      "name": "voters",
      "outputs": [
        {
          "name": "",
          "type": "bool"
        }
      ],
      "payable": false,
      "stateMutability": "view",
      "type": "function"
    },
    {
      "constant": true,
      "inputs": [],
      "name": "candidateCount",
      "outputs": [
        {
          "name": "",
          "type": "uint256"
        }
      ],
      "payable": false,
      "stateMutability": "view",
      "type": "function"
    },
    {
      "inputs": [],
      "payable": false,
      "stateMutability": "nonpayable",
      "type": "constructor"
    },
    {
      "constant": false,
      "inputs": [
        {
          "name": "_candidateId",
          "type": "uint256"
        }
      ],
      "name": "vote",
      "outputs": [],
      "payable": false,
      "stateMutability": "nonpayable",
      "type": "function"
    }
  ],
  "bytecode": "0x608060405234801561001057600080fd5b506100556040518060400160405280600b81526020017f43616e646964617465203100000000000000000000000000000000000000000081525061009e60201b60201c565b6100996040518060400160405280600b81526020017f43616e646964617465203200000000000000000000000000000000000000000081525061009e60201b60201c565b6101be565b6002600081548092919060010191905055506040518060600160405280600254815260200182815260200160008152506000806002548152602001908152602001600020600082015181600001556020820151816001019080519060200190610108929190610119565b506040820151816002015590505050565b828054600181600116156101000203166002900490600052602060002090601f016020900481019282601f1061015a57805160ff1916838001178555610188565b82800160010185558215610188579182015b8281111561018757825182559160200191906001019061016c565b5b5090506101959190610199565b5090565b6101bb91905b808211156101b757600081600090555060010161019f565b5090565b90565b61043a806101cd6000396000f3fe608060405234801561001057600080fd5b506004361061004c5760003560e01c80630121b93f146100515780631de43c4b1461007f578063a3ec138d14610134578063a9a981a314610190575b600080fd5b61007d6004803603602081101561006757600080fd5b81019080803590602001909291905050506101ae565b005b6100ab6004803603602081101561009557600080fd5b8101908080359060200190929190505050610326565b6040518084815260200180602001838152602001828103825284818151815260200191508051906020019080838360005b838110156100f75780820151818401526020810190506100dc565b50505050905090810190601f1680156101245780820380516001836020036101000a031916815260200191505b5094505050505060405180910390f35b6101766004803603602081101561014a57600080fd5b81019080803573ffffffffffffffffffffffffffffffffffffffff1690602001909291905050506103e8565b604051808215151515815260200191505060405180910390f35b610198610408565b6040518082815260200191505060405180910390f35b600081905060001515600160003373ffffffffffffffffffffffffffffffffffffffff1673ffffffffffffffffffffffffffffffffffffffff16815260200190815260200160002060009054906101000a900460ff16151514801561021557506002548111155b80156102215750600081115b61022a57600080fd5b60011515600160003373ffffffffffffffffffffffffffffffffffffffff1673ffffffffffffffffffffffffffffffffffffffff16815260200190815260200160002060009054906101000a900460ff161515146103215760018060003373ffffffffffffffffffffffffffffffffffffffff1673ffffffffffffffffffffffffffffffffffffffff16815260200190815260200160002060006101000a81548160ff02191690831515021790555060008060008481526020019081526020016000206002015490508080600101915050808060010191506000808581526020019081526020016000206002018190555050610322565b5b5050565b6000602052806000526040600020600091509050806000015490806001018054600181600116156101000203166002900480601f0160208091040260200160405190810160405280929190818152602001828054600181600116156101000203166002900480156103d85780601f106103ad576101008083540402835291602001916103d8565b820191906000526020600020905b8154815290600101906020018083116103bb57829003601f168201915b5050505050908060020154905083565b60016020528060005260406000206000915054906101000a900460ff1681565b6002548156fea165627a7a7230582054699dc96e0eb16ff1f575e425e70f09601611de9591f25e2184b166fc16a50e0029",
  "source": "pragma solidity ^0.5.0;\ncontract Election {\n\n   \n    \n    //Fetch the candidate\n    //Store candidate count\n\n    //string public candidate;\n     //Model the candidate\n        struct Candidate{\n         uint id;\n         string name;\n         uint voteCount;   \n    }\n    //Store the candidate\n     mapping(uint=>Candidate) public candidate;\n\n     mapping(address=>bool) public voters;\n\n    //Store candidate count\n     uint public candidateCount;\n\n     function addCandidate(string memory _name) private {\n         candidateCount++;\n         candidate[candidateCount]= Candidate(candidateCount,_name,0);\n     }\n\n  \n    function vote (uint  _candidateId) public {\n\n        uint checkId = _candidateId;\n\n        require( (voters[msg.sender]==false)  && (checkId<=candidateCount) && (checkId>0));\n\n\n\n        if(voters[msg.sender]!=true ){\n            // record the voter has voted \n            voters[msg.sender]=true;\n\n            //update Cadidaye vote count\n           uint countAdd= candidate[_candidateId].voteCount;\n            countAdd++;\n            candidate[_candidateId].voteCount=countAdd++;\n\n        }\n        else{\n\n        }\n\n\n       \n    }\n\n\n\n    //Constructor\n    constructor() public{\n        addCandidate(\"Candidate 1\");\n        addCandidate(\"Candidate 2\");\n    }\n}",
  "sourcePath": "/Users/rutvikpatel/Desktop/github/BlockChainElectionResult/contracts/Election.sol",
  "compiler": {
    "name": "solc",
    "version": "0.5.8+commit.23d335f2.Emscripten.clang"
  },
  "schemaVersion": "3.0.14",
  "updatedAt": "2019-09-09T23:58:29.569Z",
  "devdoc": {
    "methods": {}
  },
  "userdoc": {
    "methods": {}
  }
}